{
  "_format": "hh-sol-artifact-1",
  "contractName": "Bookverse",
  "sourceName": "contracts/Books.sol",
  "abi": [
    {
      "inputs": [
        {
          "internalType": "string",
          "name": "baseURI",
          "type": "string"
        }
      ],
      "stateMutability": "nonpayable",
      "type": "constructor"
    },
    {
      "anonymous": false,
      "inputs": [
        {
          "indexed": true,
          "internalType": "address",
          "name": "owner",
          "type": "address"
        },
        {
          "indexed": true,
          "internalType": "address",
          "name": "approved",
          "type": "address"
        },
        {
          "indexed": true,
          "internalType": "uint256",
          "name": "tokenId",
          "type": "uint256"
        }
      ],
      "name": "Approval",
      "type": "event"
    },
    {
      "anonymous": false,
      "inputs": [
        {
          "indexed": true,
          "internalType": "address",
          "name": "owner",
          "type": "address"
        },
        {
          "indexed": true,
          "internalType": "address",
          "name": "operator",
          "type": "address"
        },
        {
          "indexed": false,
          "internalType": "bool",
          "name": "approved",
          "type": "bool"
        }
      ],
      "name": "ApprovalForAll",
      "type": "event"
    },
    {
      "anonymous": false,
      "inputs": [
        {
          "indexed": true,
          "internalType": "address",
          "name": "previousOwner",
          "type": "address"
        },
        {
          "indexed": true,
          "internalType": "address",
          "name": "newOwner",
          "type": "address"
        }
      ],
      "name": "OwnershipTransferred",
      "type": "event"
    },
    {
      "anonymous": false,
      "inputs": [
        {
          "indexed": true,
          "internalType": "address",
          "name": "from",
          "type": "address"
        },
        {
          "indexed": true,
          "internalType": "address",
          "name": "to",
          "type": "address"
        },
        {
          "indexed": true,
          "internalType": "uint256",
          "name": "tokenId",
          "type": "uint256"
        }
      ],
      "name": "Transfer",
      "type": "event"
    },
    {
      "inputs": [],
      "name": "MAX_PER_MINT",
      "outputs": [
        {
          "internalType": "uint256",
          "name": "",
          "type": "uint256"
        }
      ],
      "stateMutability": "view",
      "type": "function"
    },
    {
      "inputs": [],
      "name": "MAX_SUPPLY",
      "outputs": [
        {
          "internalType": "uint256",
          "name": "",
          "type": "uint256"
        }
      ],
      "stateMutability": "view",
      "type": "function"
    },
    {
      "inputs": [],
      "name": "PRICE",
      "outputs": [
        {
          "internalType": "uint256",
          "name": "",
          "type": "uint256"
        }
      ],
      "stateMutability": "view",
      "type": "function"
    },
    {
      "inputs": [
        {
          "internalType": "address",
          "name": "to",
          "type": "address"
        },
        {
          "internalType": "uint256",
          "name": "tokenId",
          "type": "uint256"
        }
      ],
      "name": "approve",
      "outputs": [],
      "stateMutability": "nonpayable",
      "type": "function"
    },
    {
      "inputs": [
        {
          "internalType": "address",
          "name": "owner",
          "type": "address"
        }
      ],
      "name": "balanceOf",
      "outputs": [
        {
          "internalType": "uint256",
          "name": "",
          "type": "uint256"
        }
      ],
      "stateMutability": "view",
      "type": "function"
    },
    {
      "inputs": [],
      "name": "baseTokenURI",
      "outputs": [
        {
          "internalType": "string",
          "name": "",
          "type": "string"
        }
      ],
      "stateMutability": "view",
      "type": "function"
    },
    {
      "inputs": [
        {
          "internalType": "uint256",
          "name": "tokenId",
          "type": "uint256"
        }
      ],
      "name": "burn",
      "outputs": [],
      "stateMutability": "nonpayable",
      "type": "function"
    },
    {
      "inputs": [
        {
          "internalType": "uint256",
          "name": "tokenId",
          "type": "uint256"
        }
      ],
      "name": "getApproved",
      "outputs": [
        {
          "internalType": "address",
          "name": "",
          "type": "address"
        }
      ],
      "stateMutability": "view",
      "type": "function"
    },
    {
      "inputs": [
        {
          "internalType": "address",
          "name": "owner",
          "type": "address"
        },
        {
          "internalType": "address",
          "name": "operator",
          "type": "address"
        }
      ],
      "name": "isApprovedForAll",
      "outputs": [
        {
          "internalType": "bool",
          "name": "",
          "type": "bool"
        }
      ],
      "stateMutability": "view",
      "type": "function"
    },
    {
      "inputs": [
        {
          "internalType": "uint256",
          "name": "_count",
          "type": "uint256"
        }
      ],
      "name": "mintNFTs",
      "outputs": [],
      "stateMutability": "payable",
      "type": "function"
    },
    {
      "inputs": [],
      "name": "name",
      "outputs": [
        {
          "internalType": "string",
          "name": "",
          "type": "string"
        }
      ],
      "stateMutability": "view",
      "type": "function"
    },
    {
      "inputs": [],
      "name": "owner",
      "outputs": [
        {
          "internalType": "address",
          "name": "",
          "type": "address"
        }
      ],
      "stateMutability": "view",
      "type": "function"
    },
    {
      "inputs": [
        {
          "internalType": "uint256",
          "name": "tokenId",
          "type": "uint256"
        }
      ],
      "name": "ownerOf",
      "outputs": [
        {
          "internalType": "address",
          "name": "",
          "type": "address"
        }
      ],
      "stateMutability": "view",
      "type": "function"
    },
    {
      "inputs": [],
      "name": "renounceOwnership",
      "outputs": [],
      "stateMutability": "nonpayable",
      "type": "function"
    },
    {
      "inputs": [],
      "name": "reserveNFTs",
      "outputs": [],
      "stateMutability": "nonpayable",
      "type": "function"
    },
    {
      "inputs": [
        {
          "internalType": "address",
          "name": "from",
          "type": "address"
        },
        {
          "internalType": "address",
          "name": "to",
          "type": "address"
        },
        {
          "internalType": "uint256",
          "name": "tokenId",
          "type": "uint256"
        }
      ],
      "name": "safeTransferFrom",
      "outputs": [],
      "stateMutability": "nonpayable",
      "type": "function"
    },
    {
      "inputs": [
        {
          "internalType": "address",
          "name": "from",
          "type": "address"
        },
        {
          "internalType": "address",
          "name": "to",
          "type": "address"
        },
        {
          "internalType": "uint256",
          "name": "tokenId",
          "type": "uint256"
        },
        {
          "internalType": "bytes",
          "name": "_data",
          "type": "bytes"
        }
      ],
      "name": "safeTransferFrom",
      "outputs": [],
      "stateMutability": "nonpayable",
      "type": "function"
    },
    {
      "inputs": [
        {
          "internalType": "address",
          "name": "operator",
          "type": "address"
        },
        {
          "internalType": "bool",
          "name": "approved",
          "type": "bool"
        }
      ],
      "name": "setApprovalForAll",
      "outputs": [],
      "stateMutability": "nonpayable",
      "type": "function"
    },
    {
      "inputs": [
        {
          "internalType": "string",
          "name": "_baseTokenURI",
          "type": "string"
        }
      ],
      "name": "setBaseURI",
      "outputs": [],
      "stateMutability": "nonpayable",
      "type": "function"
    },
    {
      "inputs": [
        {
          "internalType": "bytes4",
          "name": "interfaceId",
          "type": "bytes4"
        }
      ],
      "name": "supportsInterface",
      "outputs": [
        {
          "internalType": "bool",
          "name": "",
          "type": "bool"
        }
      ],
      "stateMutability": "view",
      "type": "function"
    },
    {
      "inputs": [],
      "name": "symbol",
      "outputs": [
        {
          "internalType": "string",
          "name": "",
          "type": "string"
        }
      ],
      "stateMutability": "view",
      "type": "function"
    },
    {
      "inputs": [
        {
          "internalType": "uint256",
          "name": "index",
          "type": "uint256"
        }
      ],
      "name": "tokenByIndex",
      "outputs": [
        {
          "internalType": "uint256",
          "name": "",
          "type": "uint256"
        }
      ],
      "stateMutability": "view",
      "type": "function"
    },
    {
      "inputs": [
        {
          "internalType": "address",
          "name": "owner",
          "type": "address"
        },
        {
          "internalType": "uint256",
          "name": "index",
          "type": "uint256"
        }
      ],
      "name": "tokenOfOwnerByIndex",
      "outputs": [
        {
          "internalType": "uint256",
          "name": "",
          "type": "uint256"
        }
      ],
      "stateMutability": "view",
      "type": "function"
    },
    {
      "inputs": [
        {
          "internalType": "uint256",
          "name": "tokenId",
          "type": "uint256"
        }
      ],
      "name": "tokenURI",
      "outputs": [
        {
          "internalType": "string",
          "name": "",
          "type": "string"
        }
      ],
      "stateMutability": "view",
      "type": "function"
    },
    {
      "inputs": [
        {
          "internalType": "address",
          "name": "_owner",
          "type": "address"
        }
      ],
      "name": "tokensOfOwner",
      "outputs": [
        {
          "internalType": "uint256[]",
          "name": "",
          "type": "uint256[]"
        }
      ],
      "stateMutability": "view",
      "type": "function"
    },
    {
      "inputs": [],
      "name": "totalSupply",
      "outputs": [
        {
          "internalType": "uint256",
          "name": "",
          "type": "uint256"
        }
      ],
      "stateMutability": "view",
      "type": "function"
    },
    {
      "inputs": [
        {
          "internalType": "address",
          "name": "from",
          "type": "address"
        },
        {
          "internalType": "address",
          "name": "to",
          "type": "address"
        },
        {
          "internalType": "uint256",
          "name": "tokenId",
          "type": "uint256"
        }
      ],
      "name": "transferFrom",
      "outputs": [],
      "stateMutability": "nonpayable",
      "type": "function"
    },
    {
      "inputs": [
        {
          "internalType": "address",
          "name": "newOwner",
          "type": "address"
        }
      ],
      "name": "transferOwnership",
      "outputs": [],
      "stateMutability": "nonpayable",
      "type": "function"
    },
    {
      "inputs": [],
      "name": "withdraw",
      "outputs": [],
      "stateMutability": "payable",
      "type": "function"
    }
  ],
  "bytecode": "0x60806040523480156200001157600080fd5b5060405162004aee38038062004aee8339818101604052810190620000379190620003d4565b6040518060400160405280600981526020017f426f6f6b766572736500000000000000000000000000000000000000000000008152506040518060400160405280600581526020017f424f4f4b530000000000000000000000000000000000000000000000000000008152508160009080519060200190620000bb929190620002b2565b508060019080519060200190620000d4929190620002b2565b505050620000f7620000eb6200010f60201b60201c565b6200011760201b60201c565b6200010881620001dd60201b60201c565b506200060c565b600033905090565b6000600a60009054906101000a900473ffffffffffffffffffffffffffffffffffffffff16905081600a60006101000a81548173ffffffffffffffffffffffffffffffffffffffff021916908373ffffffffffffffffffffffffffffffffffffffff1602179055508173ffffffffffffffffffffffffffffffffffffffff168173ffffffffffffffffffffffffffffffffffffffff167f8be0079c531659141344cd1fd0a4f28419497f9722a3daafe3b4186f6b6457e060405160405180910390a35050565b620001ed6200010f60201b60201c565b73ffffffffffffffffffffffffffffffffffffffff16620002136200028860201b60201c565b73ffffffffffffffffffffffffffffffffffffffff16146200026c576040517f08c379a0000000000000000000000000000000000000000000000000000000008152600401620002639062000440565b60405180910390fd5b80600c908051906020019062000284929190620002b2565b5050565b6000600a60009054906101000a900473ffffffffffffffffffffffffffffffffffffffff16905090565b828054620002c09062000508565b90600052602060002090601f016020900481019282620002e4576000855562000330565b82601f10620002ff57805160ff191683800117855562000330565b8280016001018555821562000330579182015b828111156200032f57825182559160200191906001019062000312565b5b5090506200033f919062000343565b5090565b5b808211156200035e57600081600090555060010162000344565b5090565b60006200037962000373846200048b565b62000462565b9050828152602081018484840111156200039257600080fd5b6200039f848285620004d2565b509392505050565b600082601f830112620003b957600080fd5b8151620003cb84826020860162000362565b91505092915050565b600060208284031215620003e757600080fd5b600082015167ffffffffffffffff8111156200040257600080fd5b6200041084828501620003a7565b91505092915050565b600062000428602083620004c1565b91506200043582620005e3565b602082019050919050565b600060208201905081810360008301526200045b8162000419565b9050919050565b60006200046e62000481565b90506200047c82826200053e565b919050565b6000604051905090565b600067ffffffffffffffff821115620004a957620004a8620005a3565b5b620004b482620005d2565b9050602081019050919050565b600082825260208201905092915050565b60005b83811015620004f2578082015181840152602081019050620004d5565b8381111562000502576000848401525b50505050565b600060028204905060018216806200052157607f821691505b6020821081141562000538576200053762000574565b5b50919050565b6200054982620005d2565b810181811067ffffffffffffffff821117156200056b576200056a620005a3565b5b80604052505050565b7f4e487b7100000000000000000000000000000000000000000000000000000000600052602260045260246000fd5b7f4e487b7100000000000000000000000000000000000000000000000000000000600052604160045260246000fd5b6000601f19601f8301169050919050565b7f4f776e61626c653a2063616c6c6572206973206e6f7420746865206f776e6572600082015250565b6144d2806200061c6000396000f3fe6080604052600436106101c25760003560e01c80634f6ccce7116100f75780638da5cb5b11610095578063c87b56dd11610064578063c87b56dd14610612578063d547cfb71461064f578063e985e9c51461067a578063f2fde38b146106b7576101c2565b80638da5cb5b1461056a57806395d89b4114610595578063a22cb465146105c0578063b88d4fde146105e9576101c2565b806370a08231116100d157806370a08231146104ae578063715018a6146104eb5780638462151c146105025780638d859f3e1461053f576101c2565b80634f6ccce71461040b57806355f804b3146104485780636352211e14610471576101c2565b806323b872dd116101645780633b4b13811161013e5780633b4b1381146103935780633ccfd60b146103af57806342842e0e146103b957806342966c68146103e2576101c2565b806323b872dd146103025780632f745c591461032b57806332cb6b0c14610368576101c2565b8063095ea7b3116101a0578063095ea7b31461026c57806309d42b3014610295578063144100c7146102c057806318160ddd146102d7576101c2565b806301ffc9a7146101c757806306fdde0314610204578063081812fc1461022f575b600080fd5b3480156101d357600080fd5b506101ee60048036038101906101e99190612f5a565b6106e0565b6040516101fb91906135bb565b60405180910390f35b34801561021057600080fd5b506102196106f2565b60405161022691906135d6565b60405180910390f35b34801561023b57600080fd5b5061025660048036038101906102519190612fed565b610784565b6040516102639190613532565b60405180910390f35b34801561027857600080fd5b50610293600480360381019061028e9190612f1e565b610809565b005b3480156102a157600080fd5b506102aa610921565b6040516102b79190613918565b60405180910390f35b3480156102cc57600080fd5b506102d5610926565b005b3480156102e357600080fd5b506102ec610a31565b6040516102f99190613918565b60405180910390f35b34801561030e57600080fd5b5061032960048036038101906103249190612e18565b610a3e565b005b34801561033757600080fd5b50610352600480360381019061034d9190612f1e565b610a9e565b60405161035f9190613918565b60405180910390f35b34801561037457600080fd5b5061037d610b43565b60405161038a9190613918565b60405180910390f35b6103ad60048036038101906103a89190612fed565b610b48565b005b6103b7610c83565b005b3480156103c557600080fd5b506103e060048036038101906103db9190612e18565b610df7565b005b3480156103ee57600080fd5b5061040960048036038101906104049190612fed565b610e17565b005b34801561041757600080fd5b50610432600480360381019061042d9190612fed565b610e73565b60405161043f9190613918565b60405180910390f35b34801561045457600080fd5b5061046f600480360381019061046a9190612fac565b610f0a565b005b34801561047d57600080fd5b5061049860048036038101906104939190612fed565b610fa0565b6040516104a59190613532565b60405180910390f35b3480156104ba57600080fd5b506104d560048036038101906104d09190612db3565b611052565b6040516104e29190613918565b60405180910390f35b3480156104f757600080fd5b5061050061110a565b005b34801561050e57600080fd5b5061052960048036038101906105249190612db3565b611192565b6040516105369190613599565b60405180910390f35b34801561054b57600080fd5b5061055461128c565b6040516105619190613918565b60405180910390f35b34801561057657600080fd5b5061057f611297565b60405161058c9190613532565b60405180910390f35b3480156105a157600080fd5b506105aa6112c1565b6040516105b791906135d6565b60405180910390f35b3480156105cc57600080fd5b506105e760048036038101906105e29190612ee2565b611353565b005b3480156105f557600080fd5b50610610600480360381019061060b9190612e67565b611369565b005b34801561061e57600080fd5b5061063960048036038101906106349190612fed565b6113cb565b60405161064691906135d6565b60405180910390f35b34801561065b57600080fd5b50610664611472565b60405161067191906135d6565b60405180910390f35b34801561068657600080fd5b506106a1600480360381019061069c9190612ddc565b611500565b6040516106ae91906135bb565b60405180910390f35b3480156106c357600080fd5b506106de60048036038101906106d99190612db3565b611594565b005b60006106eb8261168c565b9050919050565b60606000805461070190613c0c565b80601f016020809104026020016040519081016040528092919081815260200182805461072d90613c0c565b801561077a5780601f1061074f5761010080835404028352916020019161077a565b820191906000526020600020905b81548152906001019060200180831161075d57829003601f168201915b5050505050905090565b600061078f82611706565b6107ce576040517f08c379a00000000000000000000000000000000000000000000000000000000081526004016107c590613818565b60405180910390fd5b6004600083815260200190815260200160002060009054906101000a900473ffffffffffffffffffffffffffffffffffffffff169050919050565b600061081482610fa0565b90508073ffffffffffffffffffffffffffffffffffffffff168373ffffffffffffffffffffffffffffffffffffffff161415610885576040517f08c379a000000000000000000000000000000000000000000000000000000000815260040161087c90613878565b60405180910390fd5b8073ffffffffffffffffffffffffffffffffffffffff166108a4611772565b73ffffffffffffffffffffffffffffffffffffffff1614806108d357506108d2816108cd611772565b611500565b5b610912576040517f08c379a000000000000000000000000000000000000000000000000000000000815260040161090990613758565b60405180910390fd5b61091c838361177a565b505050565b600381565b61092e611772565b73ffffffffffffffffffffffffffffffffffffffff1661094c611297565b73ffffffffffffffffffffffffffffffffffffffff16146109a2576040517f08c379a000000000000000000000000000000000000000000000000000000000815260040161099990613838565b60405180910390fd5b60006109ae600b611833565b905060146109c660058361184190919063ffffffff16565b10610a06576040517f08c379a00000000000000000000000000000000000000000000000000000000081526004016109fd906137b8565b60405180910390fd5b60005b6005811015610a2d57610a1a611857565b8080610a2590613c6f565b915050610a09565b5050565b6000600880549050905090565b610a4f610a49611772565b8261187c565b610a8e576040517f08c379a0000000000000000000000000000000000000000000000000000000008152600401610a85906138b8565b60405180910390fd5b610a9983838361195a565b505050565b6000610aa983611052565b8210610aea576040517f08c379a0000000000000000000000000000000000000000000000000000000008152600401610ae1906135f8565b60405180910390fd5b600660008473ffffffffffffffffffffffffffffffffffffffff1673ffffffffffffffffffffffffffffffffffffffff168152602001908152602001600020600083815260200190815260200160002054905092915050565b601481565b6000610b54600b611833565b90506014610b6b838361184190919063ffffffff16565b1115610bac576040517f08c379a0000000000000000000000000000000000000000000000000000000008152600401610ba3906136f8565b60405180910390fd5b600082118015610bbd575060038211155b610bfc576040517f08c379a0000000000000000000000000000000000000000000000000000000008152600401610bf390613718565b60405180910390fd5b610c168266038d7ea4c68000611bc190919063ffffffff16565b341015610c58576040517f08c379a0000000000000000000000000000000000000000000000000000000008152600401610c4f906136d8565b60405180910390fd5b60005b82811015610c7e57610c6b611857565b8080610c7690613c6f565b915050610c5b565b505050565b610c8b611772565b73ffffffffffffffffffffffffffffffffffffffff16610ca9611297565b73ffffffffffffffffffffffffffffffffffffffff1614610cff576040517f08c379a0000000000000000000000000000000000000000000000000000000008152600401610cf690613838565b60405180910390fd5b600047905060008111610d47576040517f08c379a0000000000000000000000000000000000000000000000000000000008152600401610d3e906137f8565b60405180910390fd5b60003373ffffffffffffffffffffffffffffffffffffffff1682604051610d6d9061351d565b60006040518083038185875af1925050503d8060008114610daa576040519150601f19603f3d011682016040523d82523d6000602084013e610daf565b606091505b5050905080610df3576040517f08c379a0000000000000000000000000000000000000000000000000000000008152600401610dea90613898565b60405180910390fd5b5050565b610e1283838360405180602001604052806000815250611369565b505050565b610e28610e22611772565b8261187c565b610e67576040517f08c379a0000000000000000000000000000000000000000000000000000000008152600401610e5e906138f8565b60405180910390fd5b610e7081611bd7565b50565b6000610e7d610a31565b8210610ebe576040517f08c379a0000000000000000000000000000000000000000000000000000000008152600401610eb5906138d8565b60405180910390fd5b60088281548110610ef8577f4e487b7100000000000000000000000000000000000000000000000000000000600052603260045260246000fd5b90600052602060002001549050919050565b610f12611772565b73ffffffffffffffffffffffffffffffffffffffff16610f30611297565b73ffffffffffffffffffffffffffffffffffffffff1614610f86576040517f08c379a0000000000000000000000000000000000000000000000000000000008152600401610f7d90613838565b60405180910390fd5b80600c9080519060200190610f9c929190612bd7565b5050565b6000806002600084815260200190815260200160002060009054906101000a900473ffffffffffffffffffffffffffffffffffffffff169050600073ffffffffffffffffffffffffffffffffffffffff168173ffffffffffffffffffffffffffffffffffffffff161415611049576040517f08c379a000000000000000000000000000000000000000000000000000000000815260040161104090613798565b60405180910390fd5b80915050919050565b60008073ffffffffffffffffffffffffffffffffffffffff168273ffffffffffffffffffffffffffffffffffffffff1614156110c3576040517f08c379a00000000000000000000000000000000000000000000000000000000081526004016110ba90613778565b60405180910390fd5b600360008373ffffffffffffffffffffffffffffffffffffffff1673ffffffffffffffffffffffffffffffffffffffff168152602001908152602001600020549050919050565b611112611772565b73ffffffffffffffffffffffffffffffffffffffff16611130611297565b73ffffffffffffffffffffffffffffffffffffffff1614611186576040517f08c379a000000000000000000000000000000000000000000000000000000000815260040161117d90613838565b60405180910390fd5b6111906000611cf4565b565b6060600061119f83611052565b905060008167ffffffffffffffff8111156111e3577f4e487b7100000000000000000000000000000000000000000000000000000000600052604160045260246000fd5b6040519080825280602002602001820160405280156112115781602001602082028036833780820191505090505b50905060005b82811015611281576112298582610a9e565b828281518110611262577f4e487b7100000000000000000000000000000000000000000000000000000000600052603260045260246000fd5b602002602001018181525050808061127990613c6f565b915050611217565b508092505050919050565b66038d7ea4c6800081565b6000600a60009054906101000a900473ffffffffffffffffffffffffffffffffffffffff16905090565b6060600180546112d090613c0c565b80601f01602080910402602001604051908101604052809291908181526020018280546112fc90613c0c565b80156113495780601f1061131e57610100808354040283529160200191611349565b820191906000526020600020905b81548152906001019060200180831161132c57829003601f168201915b5050505050905090565b61136561135e611772565b8383611dba565b5050565b61137a611374611772565b8361187c565b6113b9576040517f08c379a00000000000000000000000000000000000000000000000000000000081526004016113b0906138b8565b60405180910390fd5b6113c584848484611f27565b50505050565b60606113d682611706565b611415576040517f08c379a000000000000000000000000000000000000000000000000000000000815260040161140c90613858565b60405180910390fd5b600061141f611f83565b9050600081511161143f576040518060200160405280600081525061146a565b8061144984612015565b60405160200161145a9291906134f9565b6040516020818303038152906040525b915050919050565b600c805461147f90613c0c565b80601f01602080910402602001604051908101604052809291908181526020018280546114ab90613c0c565b80156114f85780601f106114cd576101008083540402835291602001916114f8565b820191906000526020600020905b8154815290600101906020018083116114db57829003601f168201915b505050505081565b6000600560008473ffffffffffffffffffffffffffffffffffffffff1673ffffffffffffffffffffffffffffffffffffffff16815260200190815260200160002060008373ffffffffffffffffffffffffffffffffffffffff1673ffffffffffffffffffffffffffffffffffffffff16815260200190815260200160002060009054906101000a900460ff16905092915050565b61159c611772565b73ffffffffffffffffffffffffffffffffffffffff166115ba611297565b73ffffffffffffffffffffffffffffffffffffffff1614611610576040517f08c379a000000000000000000000000000000000000000000000000000000000815260040161160790613838565b60405180910390fd5b600073ffffffffffffffffffffffffffffffffffffffff168173ffffffffffffffffffffffffffffffffffffffff161415611680576040517f08c379a000000000000000000000000000000000000000000000000000000000815260040161167790613638565b60405180910390fd5b61168981611cf4565b50565b60007f780e9d63000000000000000000000000000000000000000000000000000000007bffffffffffffffffffffffffffffffffffffffffffffffffffffffff1916827bffffffffffffffffffffffffffffffffffffffffffffffffffffffff191614806116ff57506116fe826121c2565b5b9050919050565b60008073ffffffffffffffffffffffffffffffffffffffff166002600084815260200190815260200160002060009054906101000a900473ffffffffffffffffffffffffffffffffffffffff1673ffffffffffffffffffffffffffffffffffffffff1614159050919050565b600033905090565b816004600083815260200190815260200160002060006101000a81548173ffffffffffffffffffffffffffffffffffffffff021916908373ffffffffffffffffffffffffffffffffffffffff160217905550808273ffffffffffffffffffffffffffffffffffffffff166117ed83610fa0565b73ffffffffffffffffffffffffffffffffffffffff167f8c5be1e5ebec7d5bd14f71427d1e84f3dd0314c0f7b2291e5b200ac8c7c3b92560405160405180910390a45050565b600081600001549050919050565b6000818361184f9190613a41565b905092915050565b6000611863600b611833565b905061186f33826122a4565b611879600b6122c2565b50565b600061188782611706565b6118c6576040517f08c379a00000000000000000000000000000000000000000000000000000000081526004016118bd90613738565b60405180910390fd5b60006118d183610fa0565b90508073ffffffffffffffffffffffffffffffffffffffff168473ffffffffffffffffffffffffffffffffffffffff16148061194057508373ffffffffffffffffffffffffffffffffffffffff1661192884610784565b73ffffffffffffffffffffffffffffffffffffffff16145b8061195157506119508185611500565b5b91505092915050565b8273ffffffffffffffffffffffffffffffffffffffff1661197a82610fa0565b73ffffffffffffffffffffffffffffffffffffffff16146119d0576040517f08c379a00000000000000000000000000000000000000000000000000000000081526004016119c790613658565b60405180910390fd5b600073ffffffffffffffffffffffffffffffffffffffff168273ffffffffffffffffffffffffffffffffffffffff161415611a40576040517f08c379a0000000000000000000000000000000000000000000000000000000008152600401611a3790613698565b60405180910390fd5b611a4b8383836122d8565b611a5660008261177a565b6001600360008573ffffffffffffffffffffffffffffffffffffffff1673ffffffffffffffffffffffffffffffffffffffff1681526020019081526020016000206000828254611aa69190613b22565b925050819055506001600360008473ffffffffffffffffffffffffffffffffffffffff1673ffffffffffffffffffffffffffffffffffffffff1681526020019081526020016000206000828254611afd9190613a41565b92505081905550816002600083815260200190815260200160002060006101000a81548173ffffffffffffffffffffffffffffffffffffffff021916908373ffffffffffffffffffffffffffffffffffffffff160217905550808273ffffffffffffffffffffffffffffffffffffffff168473ffffffffffffffffffffffffffffffffffffffff167fddf252ad1be2c89b69c2b068fc378daa952ba7f163c4a11628f55a4df523b3ef60405160405180910390a4611bbc8383836122e8565b505050565b60008183611bcf9190613ac8565b905092915050565b6000611be282610fa0565b9050611bf0816000846122d8565b611bfb60008361177a565b6001600360008373ffffffffffffffffffffffffffffffffffffffff1673ffffffffffffffffffffffffffffffffffffffff1681526020019081526020016000206000828254611c4b9190613b22565b925050819055506002600083815260200190815260200160002060006101000a81549073ffffffffffffffffffffffffffffffffffffffff021916905581600073ffffffffffffffffffffffffffffffffffffffff168273ffffffffffffffffffffffffffffffffffffffff167fddf252ad1be2c89b69c2b068fc378daa952ba7f163c4a11628f55a4df523b3ef60405160405180910390a4611cf0816000846122e8565b5050565b6000600a60009054906101000a900473ffffffffffffffffffffffffffffffffffffffff16905081600a60006101000a81548173ffffffffffffffffffffffffffffffffffffffff021916908373ffffffffffffffffffffffffffffffffffffffff1602179055508173ffffffffffffffffffffffffffffffffffffffff168173ffffffffffffffffffffffffffffffffffffffff167f8be0079c531659141344cd1fd0a4f28419497f9722a3daafe3b4186f6b6457e060405160405180910390a35050565b8173ffffffffffffffffffffffffffffffffffffffff168373ffffffffffffffffffffffffffffffffffffffff161415611e29576040517f08c379a0000000000000000000000000000000000000000000000000000000008152600401611e20906136b8565b60405180910390fd5b80600560008573ffffffffffffffffffffffffffffffffffffffff1673ffffffffffffffffffffffffffffffffffffffff16815260200190815260200160002060008473ffffffffffffffffffffffffffffffffffffffff1673ffffffffffffffffffffffffffffffffffffffff16815260200190815260200160002060006101000a81548160ff0219169083151502179055508173ffffffffffffffffffffffffffffffffffffffff168373ffffffffffffffffffffffffffffffffffffffff167f17307eab39ab6107e8899845ad3d59bd9653f200f220920489ca2b5937696c3183604051611f1a91906135bb565b60405180910390a3505050565b611f3284848461195a565b611f3e848484846122ed565b611f7d576040517f08c379a0000000000000000000000000000000000000000000000000000000008152600401611f7490613618565b60405180910390fd5b50505050565b6060600c8054611f9290613c0c565b80601f0160208091040260200160405190810160405280929190818152602001828054611fbe90613c0c565b801561200b5780601f10611fe05761010080835404028352916020019161200b565b820191906000526020600020905b815481529060010190602001808311611fee57829003601f168201915b5050505050905090565b6060600082141561205d576040518060400160405280600181526020017f300000000000000000000000000000000000000000000000000000000000000081525090506121bd565b600082905060005b6000821461208f57808061207890613c6f565b915050600a826120889190613a97565b9150612065565b60008167ffffffffffffffff8111156120d1577f4e487b7100000000000000000000000000000000000000000000000000000000600052604160045260246000fd5b6040519080825280601f01601f1916602001820160405280156121035781602001600182028036833780820191505090505b5090505b600085146121b65760018261211c9190613b22565b9150600a8561212b9190613cb8565b60306121379190613a41565b60f81b818381518110612173577f4e487b7100000000000000000000000000000000000000000000000000000000600052603260045260246000fd5b60200101907effffffffffffffffffffffffffffffffffffffffffffffffffffffffffffff1916908160001a905350600a856121af9190613a97565b9450612107565b8093505050505b919050565b60007f80ac58cd000000000000000000000000000000000000000000000000000000007bffffffffffffffffffffffffffffffffffffffffffffffffffffffff1916827bffffffffffffffffffffffffffffffffffffffffffffffffffffffff1916148061228d57507f5b5e139f000000000000000000000000000000000000000000000000000000007bffffffffffffffffffffffffffffffffffffffffffffffffffffffff1916827bffffffffffffffffffffffffffffffffffffffffffffffffffffffff1916145b8061229d575061229c82612484565b5b9050919050565b6122be8282604051806020016040528060008152506124ee565b5050565b6001816000016000828254019250508190555050565b6122e3838383612549565b505050565b505050565b600061230e8473ffffffffffffffffffffffffffffffffffffffff1661265d565b15612477578373ffffffffffffffffffffffffffffffffffffffff1663150b7a02612337611772565b8786866040518563ffffffff1660e01b8152600401612359949392919061354d565b602060405180830381600087803b15801561237357600080fd5b505af19250505080156123a457506040513d601f19601f820116820180604052508101906123a19190612f83565b60015b612427573d80600081146123d4576040519150601f19603f3d011682016040523d82523d6000602084013e6123d9565b606091505b5060008151141561241f576040517f08c379a000000000000000000000000000000000000000000000000000000000815260040161241690613618565b60405180910390fd5b805181602001fd5b63150b7a0260e01b7bffffffffffffffffffffffffffffffffffffffffffffffffffffffff1916817bffffffffffffffffffffffffffffffffffffffffffffffffffffffff19161491505061247c565b600190505b949350505050565b60007f01ffc9a7000000000000000000000000000000000000000000000000000000007bffffffffffffffffffffffffffffffffffffffffffffffffffffffff1916827bffffffffffffffffffffffffffffffffffffffffffffffffffffffff1916149050919050565b6124f88383612680565b61250560008484846122ed565b612544576040517f08c379a000000000000000000000000000000000000000000000000000000000815260040161253b90613618565b60405180910390fd5b505050565b61255483838361285a565b600073ffffffffffffffffffffffffffffffffffffffff168373ffffffffffffffffffffffffffffffffffffffff161415612597576125928161285f565b6125d6565b8173ffffffffffffffffffffffffffffffffffffffff168373ffffffffffffffffffffffffffffffffffffffff16146125d5576125d483826128a8565b5b5b600073ffffffffffffffffffffffffffffffffffffffff168273ffffffffffffffffffffffffffffffffffffffff1614156126195761261481612a15565b612658565b8273ffffffffffffffffffffffffffffffffffffffff168273ffffffffffffffffffffffffffffffffffffffff1614612657576126568282612b58565b5b5b505050565b6000808273ffffffffffffffffffffffffffffffffffffffff163b119050919050565b600073ffffffffffffffffffffffffffffffffffffffff168273ffffffffffffffffffffffffffffffffffffffff1614156126f0576040517f08c379a00000000000000000000000000000000000000000000000000000000081526004016126e7906137d8565b60405180910390fd5b6126f981611706565b15612739576040517f08c379a000000000000000000000000000000000000000000000000000000000815260040161273090613678565b60405180910390fd5b612745600083836122d8565b6001600360008473ffffffffffffffffffffffffffffffffffffffff1673ffffffffffffffffffffffffffffffffffffffff16815260200190815260200160002060008282546127959190613a41565b92505081905550816002600083815260200190815260200160002060006101000a81548173ffffffffffffffffffffffffffffffffffffffff021916908373ffffffffffffffffffffffffffffffffffffffff160217905550808273ffffffffffffffffffffffffffffffffffffffff16600073ffffffffffffffffffffffffffffffffffffffff167fddf252ad1be2c89b69c2b068fc378daa952ba7f163c4a11628f55a4df523b3ef60405160405180910390a4612856600083836122e8565b5050565b505050565b6008805490506009600083815260200190815260200160002081905550600881908060018154018082558091505060019003906000526020600020016000909190919091505550565b600060016128b584611052565b6128bf9190613b22565b90506000600760008481526020019081526020016000205490508181146129a4576000600660008673ffffffffffffffffffffffffffffffffffffffff1673ffffffffffffffffffffffffffffffffffffffff168152602001908152602001600020600084815260200190815260200160002054905080600660008773ffffffffffffffffffffffffffffffffffffffff1673ffffffffffffffffffffffffffffffffffffffff168152602001908152602001600020600084815260200190815260200160002081905550816007600083815260200190815260200160002081905550505b6007600084815260200190815260200160002060009055600660008573ffffffffffffffffffffffffffffffffffffffff1673ffffffffffffffffffffffffffffffffffffffff16815260200190815260200160002060008381526020019081526020016000206000905550505050565b60006001600880549050612a299190613b22565b9050600060096000848152602001908152602001600020549050600060088381548110612a7f577f4e487b7100000000000000000000000000000000000000000000000000000000600052603260045260246000fd5b906000526020600020015490508060088381548110612ac7577f4e487b7100000000000000000000000000000000000000000000000000000000600052603260045260246000fd5b906000526020600020018190555081600960008381526020019081526020016000208190555060096000858152602001908152602001600020600090556008805480612b3c577f4e487b7100000000000000000000000000000000000000000000000000000000600052603160045260246000fd5b6001900381819060005260206000200160009055905550505050565b6000612b6383611052565b905081600660008573ffffffffffffffffffffffffffffffffffffffff1673ffffffffffffffffffffffffffffffffffffffff168152602001908152602001600020600083815260200190815260200160002081905550806007600084815260200190815260200160002081905550505050565b828054612be390613c0c565b90600052602060002090601f016020900481019282612c055760008555612c4c565b82601f10612c1e57805160ff1916838001178555612c4c565b82800160010185558215612c4c579182015b82811115612c4b578251825591602001919060010190612c30565b5b509050612c599190612c5d565b5090565b5b80821115612c76576000816000905550600101612c5e565b5090565b6000612c8d612c8884613958565b613933565b905082815260208101848484011115612ca557600080fd5b612cb0848285613bca565b509392505050565b6000612ccb612cc684613989565b613933565b905082815260208101848484011115612ce357600080fd5b612cee848285613bca565b509392505050565b600081359050612d0581614440565b92915050565b600081359050612d1a81614457565b92915050565b600081359050612d2f8161446e565b92915050565b600081519050612d448161446e565b92915050565b600082601f830112612d5b57600080fd5b8135612d6b848260208601612c7a565b91505092915050565b600082601f830112612d8557600080fd5b8135612d95848260208601612cb8565b91505092915050565b600081359050612dad81614485565b92915050565b600060208284031215612dc557600080fd5b6000612dd384828501612cf6565b91505092915050565b60008060408385031215612def57600080fd5b6000612dfd85828601612cf6565b9250506020612e0e85828601612cf6565b9150509250929050565b600080600060608486031215612e2d57600080fd5b6000612e3b86828701612cf6565b9350506020612e4c86828701612cf6565b9250506040612e5d86828701612d9e565b9150509250925092565b60008060008060808587031215612e7d57600080fd5b6000612e8b87828801612cf6565b9450506020612e9c87828801612cf6565b9350506040612ead87828801612d9e565b925050606085013567ffffffffffffffff811115612eca57600080fd5b612ed687828801612d4a565b91505092959194509250565b60008060408385031215612ef557600080fd5b6000612f0385828601612cf6565b9250506020612f1485828601612d0b565b9150509250929050565b60008060408385031215612f3157600080fd5b6000612f3f85828601612cf6565b9250506020612f5085828601612d9e565b9150509250929050565b600060208284031215612f6c57600080fd5b6000612f7a84828501612d20565b91505092915050565b600060208284031215612f9557600080fd5b6000612fa384828501612d35565b91505092915050565b600060208284031215612fbe57600080fd5b600082013567ffffffffffffffff811115612fd857600080fd5b612fe484828501612d74565b91505092915050565b600060208284031215612fff57600080fd5b600061300d84828501612d9e565b91505092915050565b600061302283836134db565b60208301905092915050565b61303781613b56565b82525050565b6000613048826139ca565b61305281856139f8565b935061305d836139ba565b8060005b8381101561308e5781516130758882613016565b9750613080836139eb565b925050600181019050613061565b5085935050505092915050565b6130a481613b68565b82525050565b60006130b5826139d5565b6130bf8185613a09565b93506130cf818560208601613bd9565b6130d881613da5565b840191505092915050565b60006130ee826139e0565b6130f88185613a25565b9350613108818560208601613bd9565b61311181613da5565b840191505092915050565b6000613127826139e0565b6131318185613a36565b9350613141818560208601613bd9565b80840191505092915050565b600061315a602b83613a25565b915061316582613db6565b604082019050919050565b600061317d603283613a25565b915061318882613e05565b604082019050919050565b60006131a0602683613a25565b91506131ab82613e54565b604082019050919050565b60006131c3602583613a25565b91506131ce82613ea3565b604082019050919050565b60006131e6601c83613a25565b91506131f182613ef2565b602082019050919050565b6000613209602483613a25565b915061321482613f1b565b604082019050919050565b600061322c601983613a25565b915061323782613f6a565b602082019050919050565b600061324f602283613a25565b915061325a82613f93565b604082019050919050565b6000613272601583613a25565b915061327d82613fe2565b602082019050919050565b6000613295602583613a25565b91506132a08261400b565b604082019050919050565b60006132b8602c83613a25565b91506132c38261405a565b604082019050919050565b60006132db603883613a25565b91506132e6826140a9565b604082019050919050565b60006132fe602a83613a25565b9150613309826140f8565b604082019050919050565b6000613321602983613a25565b915061332c82614147565b604082019050919050565b6000613344600f83613a25565b915061334f82614196565b602082019050919050565b6000613367602083613a25565b9150613372826141bf565b602082019050919050565b600061338a601983613a25565b9150613395826141e8565b602082019050919050565b60006133ad602c83613a25565b91506133b882614211565b604082019050919050565b60006133d0602083613a25565b91506133db82614260565b602082019050919050565b60006133f3602f83613a25565b91506133fe82614289565b604082019050919050565b6000613416602183613a25565b9150613421826142d8565b604082019050919050565b6000613439600083613a1a565b915061344482614327565b600082019050919050565b600061345c601083613a25565b91506134678261432a565b602082019050919050565b600061347f603183613a25565b915061348a82614353565b604082019050919050565b60006134a2602c83613a25565b91506134ad826143a2565b604082019050919050565b60006134c5603083613a25565b91506134d0826143f1565b604082019050919050565b6134e481613bc0565b82525050565b6134f381613bc0565b82525050565b6000613505828561311c565b9150613511828461311c565b91508190509392505050565b60006135288261342c565b9150819050919050565b6000602082019050613547600083018461302e565b92915050565b6000608082019050613562600083018761302e565b61356f602083018661302e565b61357c60408301856134ea565b818103606083015261358e81846130aa565b905095945050505050565b600060208201905081810360008301526135b3818461303d565b905092915050565b60006020820190506135d0600083018461309b565b92915050565b600060208201905081810360008301526135f081846130e3565b905092915050565b600060208201905081810360008301526136118161314d565b9050919050565b6000602082019050818103600083015261363181613170565b9050919050565b6000602082019050818103600083015261365181613193565b9050919050565b60006020820190508181036000830152613671816131b6565b9050919050565b60006020820190508181036000830152613691816131d9565b9050919050565b600060208201905081810360008301526136b1816131fc565b9050919050565b600060208201905081810360008301526136d18161321f565b9050919050565b600060208201905081810360008301526136f181613242565b9050919050565b6000602082019050818103600083015261371181613265565b9050919050565b6000602082019050818103600083015261373181613288565b9050919050565b60006020820190508181036000830152613751816132ab565b9050919050565b60006020820190508181036000830152613771816132ce565b9050919050565b60006020820190508181036000830152613791816132f1565b9050919050565b600060208201905081810360008301526137b181613314565b9050919050565b600060208201905081810360008301526137d181613337565b9050919050565b600060208201905081810360008301526137f18161335a565b9050919050565b600060208201905081810360008301526138118161337d565b9050919050565b60006020820190508181036000830152613831816133a0565b9050919050565b60006020820190508181036000830152613851816133c3565b9050919050565b60006020820190508181036000830152613871816133e6565b9050919050565b6000602082019050818103600083015261389181613409565b9050919050565b600060208201905081810360008301526138b18161344f565b9050919050565b600060208201905081810360008301526138d181613472565b9050919050565b600060208201905081810360008301526138f181613495565b9050919050565b60006020820190508181036000830152613911816134b8565b9050919050565b600060208201905061392d60008301846134ea565b92915050565b600061393d61394e565b90506139498282613c3e565b919050565b6000604051905090565b600067ffffffffffffffff82111561397357613972613d76565b5b61397c82613da5565b9050602081019050919050565b600067ffffffffffffffff8211156139a4576139a3613d76565b5b6139ad82613da5565b9050602081019050919050565b6000819050602082019050919050565b600081519050919050565b600081519050919050565b600081519050919050565b6000602082019050919050565b600082825260208201905092915050565b600082825260208201905092915050565b600081905092915050565b600082825260208201905092915050565b600081905092915050565b6000613a4c82613bc0565b9150613a5783613bc0565b9250827fffffffffffffffffffffffffffffffffffffffffffffffffffffffffffffffff03821115613a8c57613a8b613ce9565b5b828201905092915050565b6000613aa282613bc0565b9150613aad83613bc0565b925082613abd57613abc613d18565b5b828204905092915050565b6000613ad382613bc0565b9150613ade83613bc0565b9250817fffffffffffffffffffffffffffffffffffffffffffffffffffffffffffffffff0483118215151615613b1757613b16613ce9565b5b828202905092915050565b6000613b2d82613bc0565b9150613b3883613bc0565b925082821015613b4b57613b4a613ce9565b5b828203905092915050565b6000613b6182613ba0565b9050919050565b60008115159050919050565b60007fffffffff0000000000000000000000000000000000000000000000000000000082169050919050565b600073ffffffffffffffffffffffffffffffffffffffff82169050919050565b6000819050919050565b82818337600083830152505050565b60005b83811015613bf7578082015181840152602081019050613bdc565b83811115613c06576000848401525b50505050565b60006002820490506001821680613c2457607f821691505b60208210811415613c3857613c37613d47565b5b50919050565b613c4782613da5565b810181811067ffffffffffffffff82111715613c6657613c65613d76565b5b80604052505050565b6000613c7a82613bc0565b91507fffffffffffffffffffffffffffffffffffffffffffffffffffffffffffffffff821415613cad57613cac613ce9565b5b600182019050919050565b6000613cc382613bc0565b9150613cce83613bc0565b925082613cde57613cdd613d18565b5b828206905092915050565b7f4e487b7100000000000000000000000000000000000000000000000000000000600052601160045260246000fd5b7f4e487b7100000000000000000000000000000000000000000000000000000000600052601260045260246000fd5b7f4e487b7100000000000000000000000000000000000000000000000000000000600052602260045260246000fd5b7f4e487b7100000000000000000000000000000000000000000000000000000000600052604160045260246000fd5b6000601f19601f8301169050919050565b7f455243373231456e756d657261626c653a206f776e657220696e646578206f7560008201527f74206f6620626f756e6473000000000000000000000000000000000000000000602082015250565b7f4552433732313a207472616e7366657220746f206e6f6e20455243373231526560008201527f63656976657220696d706c656d656e7465720000000000000000000000000000602082015250565b7f4f776e61626c653a206e6577206f776e657220697320746865207a65726f206160008201527f6464726573730000000000000000000000000000000000000000000000000000602082015250565b7f4552433732313a207472616e736665722066726f6d20696e636f72726563742060008201527f6f776e6572000000000000000000000000000000000000000000000000000000602082015250565b7f4552433732313a20746f6b656e20616c7265616479206d696e74656400000000600082015250565b7f4552433732313a207472616e7366657220746f20746865207a65726f2061646460008201527f7265737300000000000000000000000000000000000000000000000000000000602082015250565b7f4552433732313a20617070726f766520746f2063616c6c657200000000000000600082015250565b7f4e6f7420656e6f75676820657468657220746f207075726368617365204e465460008201527f732e000000000000000000000000000000000000000000000000000000000000602082015250565b7f4e6f7420656e6f756768204e465473206c656674210000000000000000000000600082015250565b7f43616e6e6f74206d696e7420737065636966696564206e756d626572206f662060008201527f4e4654732e000000000000000000000000000000000000000000000000000000602082015250565b7f4552433732313a206f70657261746f7220717565727920666f72206e6f6e657860008201527f697374656e7420746f6b656e0000000000000000000000000000000000000000602082015250565b7f4552433732313a20617070726f76652063616c6c6572206973206e6f74206f7760008201527f6e6572206e6f7220617070726f76656420666f7220616c6c0000000000000000602082015250565b7f4552433732313a2062616c616e636520717565727920666f7220746865207a6560008201527f726f206164647265737300000000000000000000000000000000000000000000602082015250565b7f4552433732313a206f776e657220717565727920666f72206e6f6e657869737460008201527f656e7420746f6b656e0000000000000000000000000000000000000000000000602082015250565b7f4e6f7420656e6f756768204e4654730000000000000000000000000000000000600082015250565b7f4552433732313a206d696e7420746f20746865207a65726f2061646472657373600082015250565b7f4e6f206574686572206c65667420746f20776974686472617700000000000000600082015250565b7f4552433732313a20617070726f76656420717565727920666f72206e6f6e657860008201527f697374656e7420746f6b656e0000000000000000000000000000000000000000602082015250565b7f4f776e61626c653a2063616c6c6572206973206e6f7420746865206f776e6572600082015250565b7f4552433732314d657461646174613a2055524920717565727920666f72206e6f60008201527f6e6578697374656e7420746f6b656e0000000000000000000000000000000000602082015250565b7f4552433732313a20617070726f76616c20746f2063757272656e74206f776e6560008201527f7200000000000000000000000000000000000000000000000000000000000000602082015250565b50565b7f5472616e73666572206661696c65642e00000000000000000000000000000000600082015250565b7f4552433732313a207472616e736665722063616c6c6572206973206e6f74206f60008201527f776e6572206e6f7220617070726f766564000000000000000000000000000000602082015250565b7f455243373231456e756d657261626c653a20676c6f62616c20696e646578206f60008201527f7574206f6620626f756e64730000000000000000000000000000000000000000602082015250565b7f4552433732314275726e61626c653a2063616c6c6572206973206e6f74206f7760008201527f6e6572206e6f7220617070726f76656400000000000000000000000000000000602082015250565b61444981613b56565b811461445457600080fd5b50565b61446081613b68565b811461446b57600080fd5b50565b61447781613b74565b811461448257600080fd5b50565b61448e81613bc0565b811461449957600080fd5b5056fea26469706673582212204ffea800ce89c5404e99cfa79753b96b42fae28e1b250019e07d5f1fb37ea1d064736f6c63430008040033",
  "linkReferences": {},
  "deployedLinkReferences": {}
}